{
  "contractName": "TodoList",
  "abi": [
    {
      "inputs": [],
      "payable": false,
      "stateMutability": "nonpayable",
      "type": "constructor"
    },
    {
      "constant": true,
      "inputs": [],
      "name": "taskCount",
      "outputs": [
        {
          "internalType": "uint256",
          "name": "",
          "type": "uint256"
        }
      ],
      "payable": false,
      "stateMutability": "view",
      "type": "function"
    },
    {
      "constant": true,
      "inputs": [
        {
          "internalType": "uint256",
          "name": "",
          "type": "uint256"
        }
      ],
      "name": "tasksMap",
      "outputs": [
        {
          "internalType": "uint256",
          "name": "id",
          "type": "uint256"
        },
        {
          "internalType": "string",
          "name": "content",
          "type": "string"
        },
        {
          "internalType": "bool",
          "name": "completed",
          "type": "bool"
        },
        {
          "internalType": "bool",
          "name": "deleted",
          "type": "bool"
        }
      ],
      "payable": false,
      "stateMutability": "view",
      "type": "function"
    },
    {
      "constant": false,
      "inputs": [
        {
          "internalType": "string",
          "name": "_content",
          "type": "string"
        }
      ],
      "name": "createTask",
      "outputs": [],
      "payable": false,
      "stateMutability": "nonpayable",
      "type": "function"
    },
    {
      "constant": true,
      "inputs": [],
      "name": "getTaskCount",
      "outputs": [
        {
          "internalType": "uint256",
          "name": "",
          "type": "uint256"
        }
      ],
      "payable": false,
      "stateMutability": "view",
      "type": "function"
    },
    {
      "constant": true,
      "inputs": [
        {
          "internalType": "uint256",
          "name": "id",
          "type": "uint256"
        }
      ],
      "name": "getTask",
      "outputs": [
        {
          "internalType": "string",
          "name": "",
          "type": "string"
        },
        {
          "internalType": "bool",
          "name": "",
          "type": "bool"
        },
        {
          "internalType": "bool",
          "name": "",
          "type": "bool"
        }
      ],
      "payable": false,
      "stateMutability": "view",
      "type": "function"
    },
    {
      "constant": false,
      "inputs": [
        {
          "internalType": "uint256",
          "name": "id",
          "type": "uint256"
        }
      ],
      "name": "del",
      "outputs": [],
      "payable": false,
      "stateMutability": "nonpayable",
      "type": "function"
    }
  ],
  "bytecode": "0x60806040526000805534801561001457600080fd5b506100336040518060200160405280600081525061003860201b60201c565b610198565b6000808154809291906001019190505550604051806080016040528060005481526020018281526020016000151581526020016000151581525060016000805481526020019081526020016000206000820151816000015560208201518160010190805190602001906100ac9291906100f3565b5060408201518160020160006101000a81548160ff02191690831515021790555060608201518160020160016101000a81548160ff02191690831515021790555090505050565b828054600181600116156101000203166002900490600052602060002090601f016020900481019282601f1061013457805160ff1916838001178555610162565b82800160010185558215610162579182015b82811115610161578251825591602001919060010190610146565b5b50905061016f9190610173565b5090565b61019591905b80821115610191576000816000905550600101610179565b5090565b90565b6106df806101a76000396000f3fe608060405234801561001057600080fd5b50600436106100625760003560e01c8063111002aa146100675780631d65e77e1461012257806357771a23146101df5780638845a9091461020d578063b6cb58a5146102d1578063c17a340e146102ef575b600080fd5b6101206004803603602081101561007d57600080fd5b810190808035906020019064010000000081111561009a57600080fd5b8201836020820111156100ac57600080fd5b803590602001918460018302840111640100000000831117156100ce57600080fd5b91908080601f016020809104026020016040519081016040528093929190818152602001838380828437600081840152601f19601f82011690508083019250505050505050919291929050505061030d565b005b61014e6004803603602081101561013857600080fd5b81019080803590602001909291905050506103c8565b60405180806020018415151515815260200183151515158152602001828103825285818151815260200191508051906020019080838360005b838110156101a2578082015181840152602081019050610187565b50505050905090810190601f1680156101cf5780820380516001836020036101000a031916815260200191505b5094505050505060405180910390f35b61020b600480360360208110156101f557600080fd5b81019080803590602001909291905050506104e3565b005b6102396004803603602081101561022357600080fd5b8101908080359060200190929190505050610514565b60405180858152602001806020018415151515815260200183151515158152602001828103825285818151815260200191508051906020019080838360005b83811015610293578082015181840152602081019050610278565b50505050905090810190601f1680156102c05780820380516001836020036101000a031916815260200191505b509550505050505060405180910390f35b6102d96105f6565b6040518082815260200191505060405180910390f35b6102f76105fc565b6040518082815260200191505060405180910390f35b600080815480929190600101919050555060405180608001604052806000548152602001828152602001600015158152602001600015158152506001600080548152602001908152602001600020600082015181600001556020820151816001019080519060200190610381929190610605565b5060408201518160020160006101000a81548160ff02191690831515021790555060608201518160020160016101000a81548160ff02191690831515021790555090505050565b60606000806060600160008681526020019081526020016000206001018054600181600116156101000203166002900480601f0160208091040260200160405190810160405280929190818152602001828054600181600116156101000203166002900480156104795780601f1061044e57610100808354040283529160200191610479565b820191906000526020600020905b81548152906001019060200180831161045c57829003601f168201915b5050505050905060006001600087815260200190815260200160002060020160009054906101000a900460ff16905060006001600088815260200190815260200160002060020160019054906101000a900460ff1690508282829550955095505050509193909250565b600180600083815260200190815260200160002060020160016101000a81548160ff02191690831515021790555050565b6001602052806000526040600020600091509050806000015490806001018054600181600116156101000203166002900480601f0160208091040260200160405190810160405280929190818152602001828054600181600116156101000203166002900480156105c65780601f1061059b576101008083540402835291602001916105c6565b820191906000526020600020905b8154815290600101906020018083116105a957829003601f168201915b5050505050908060020160009054906101000a900460ff16908060020160019054906101000a900460ff16905084565b60005481565b60008054905090565b828054600181600116156101000203166002900490600052602060002090601f016020900481019282601f1061064657805160ff1916838001178555610674565b82800160010185558215610674579182015b82811115610673578251825591602001919060010190610658565b5b5090506106819190610685565b5090565b6106a791905b808211156106a357600081600090555060010161068b565b5090565b9056fea265627a7a72315820c7942eef9421ebd3995d0617feb2286efcf5b894102e8e2a366014a3d3eaceaf64736f6c63430005100032",
  "source": "pragma solidity >=0.4.21 <0.7.0;\n\ncontract TodoList {\n  uint public taskCount = 0;\n\n  constructor() public {\n        createTask(\"\");\n      }\n\n  struct Task {\n    uint id;\n    string content;\n    bool completed;\n    bool deleted;\n  }\n\n  mapping(uint => Task) public tasksMap;\n\n  function createTask(string memory _content) public {\n    taskCount ++;\n    tasksMap[taskCount] = Task(taskCount, _content, false, false);\n  }\n  \n  function getTaskCount() public view returns (uint) {\n    return taskCount;\n  }\n\n  function getTask(uint id) public view returns (string memory, bool, bool) {\n    string memory cont = tasksMap[id].content;\n    bool state = tasksMap[id].completed;\n    bool del = tasksMap[id].deleted;\n    return (cont, state, del);\n  }\n\n  function del(uint id) public {\n    tasksMap[id].deleted = true;\n  }\n\n}\n",
  "sourcePath": "/home/rishav/truffleTest/contracts/TodoList.sol",
  "compiler": {
    "name": "solc",
    "version": "0.5.16+commit.9c3226ce.Emscripten.clang"
  },
  "schemaVersion": "3.4.1",
  "updatedAt": "2021-05-25T13:29:53.498Z",
  "networkType": "ethereum",
  "devdoc": {
    "methods": {}
  },
  "userdoc": {
    "methods": {}
  }
}